:020000040800F2
:1000000048240020C101000847580008FD490008A5
:1000100045580008F50F00081D7C0008000000008E
:10002000000000000000000000000000655A000809
:10003000511100080000000075580008675A0008B8
:10004000DB010008DB010008DB010008DB01000820
:10005000DB010008DB010008DB010008DB01000810
:10006000DB010008DB010008DB010008DB01000800
:10007000DB010008DB010008DB010008DB010008F0
:10008000DB010008DB010008DB010008DB010008E0
:10009000DB010008DB010008DB010008DB010008D0
:1000A000DB010008DB010008DB010008DB010008C0
:1000B000DB010008DB010008DB010008DB010008B0
:1000C000DB010008DB010008DB010008DB010008A0
:1000D000DB010008E1610008DB010008DB0100082A
:1000E000DB010008DB010008DB010008DB01000880
:1000F000DB010008DB010008DB010008DB01000870
:10010000DB010008DB010008DB010008DB0100085F
:10011000DB010008DB010008DB010008DB0100084F
:10012000DB010008DB010008DB010008DB0100083F
:10013000DB010008DB010008DB010008DB0100082F
:10014000DB010008DB010008DB010008DB0100081F
:10015000DB010008DB010008DB010008DB0100080F
:10016000DB010008DB010008DB010008DB010008FF
:10017000DB01000869580008DB01000800000000EE
:10018000DB010008DB010008DB010008DB010008DF
:10019000DB010008DB010008DB010008DB010008CF
:1001A000DB010008DB010008DB010008DFF80CD0F0
:1001B00000F06EFA00480047298B00084824002010
:1001C0000648804706480047FEE7FEE7FEE7FEE7F1
:1001D000FEE7FEE7FEE7FEE7FEE7FEE7155B000849
:1001E000AD0100082DE9F05F0546002092469B46D0
:1001F00088460646814640241BE02846414647463D
:10020000224600F07CF853465A46C01A914110D35A
:1002100011461846224600F063F82D1A67EB0108D4
:100220004F4622460120002100F05AF817EB000942
:100230004E41201EA4F10104DFDC484631462A4627
:100240004346BDE8F09F40EA01039B0703D009E065
:1002500008C9121F08C0042AFAD203E011F8013BB2
:1002600000F8013B521EF9D27047D2B201E000F80B
:10027000012B491EFBD270470022F6E710B513464A
:100280000A4604461946FFF7F0FF204610BD00F06D
:10029000004230F000400AD0C10D01F56071C0F39A
:1002A000160042EA0151C20840071143704700207E
:1002B0000146704730B50B4601460020202201243C
:1002C00009E021FA02F59D4205D303FA02F5491B24
:1002D00004FA02F52844151EA2F10102F1DC30BD3A
:1002E000202A04DB203A00FA02F1002070479140F6
:1002F000C2F1200320FA03F3194390407047202AEB
:1003000004DB203A21FA02F00021704721FA02F3BF
:10031000D040C2F1200291400843194670472DE9B0
:10032000FE4F804681EA0300C00F0C46009021F08A
:10033000004123F00045B8EB0200A94105D2404638
:10034000214690461C460B46024623F000401043CF
:1003500047D0270DC7F30A00C3F30A510290401A91
:10036000019040286BDAC3F3130040F4801B00981F
:10037000924620B10023D2EB030A63EB0B0B0198EA
:100380005946C0F140025046FFF7AAFF06460D4607
:1003900050465946019A00F08DF910EB0800614172
:1003A000002487EA115284EAE7731A4340D0009A86
:1003B00062B3019A012A4FEA075215DC001B61EB78
:1003C00002014FF0004202EA0752CDE90042001C50
:1003D00041F5801132462B4600F08DF903B0BDE89F
:1003E000F08F40462146F9E7001B61EB0201001C3B
:1003F00041F5801300185B412018A2F5001747EB68
:10040000030140EAD570B6196D4111E06D084FEA5D
:10041000360645EAC0754FEA0752001B61EB020140
:10042000001C41F5801149084FEA30000019514184
:1004300032462B4603B0BDE8F04F00F04DB90098AE
:10044000012240000023D0EB020263EBE07300982E
:1004500021464FEAE074B8EB000061EB0401E9E7E4
:1004600083F000435BE781F0004158E72DE9FE4F40
:1004700081EA030404F0004421F0004100944FF0AD
:10048000000B23F0004350EA01045ED052EA03045B
:100490005BD0C3F30A54C1F30A552C44A4F2F334DD
:1004A0000194A0FB0254C1F3130141F48011C3F382
:1004B000130343F4801301FB024400FB034E840A40
:1004C000970A44EA815447EA8357A4FB07680295D8
:1004D0008D0A05FB07854FEA932C04FB0C54270576
:1004E000029D4FEA065847EA1637B5EB08056EEB52
:1004F000070C870E920E47EA811742EA8312A7FB88
:100500000201B6EB0B0164EB00042B0D43EA0C3344
:100510005E1844EB1C50DA465146E7FB0201C5F376
:1005200013044FEA0B3343EA14534FEA0432019C9D
:1005300043EA0603A4F10C040294009CCDE900B444
:1005400000F0D9F803B0BDE8F08F00200146F9E7CC
:100550002DE9F04D81EA030404F0004B21F0004541
:1005600014464FF0000A23F0004150EA050220D063
:1005700054EA01021DD0C5F30A570246C5F313031E
:10058000C1F31300C1F30A5640F4801543F48013FD
:10059000A7EB0608101BD64608F2FD3873EB0500E2
:1005A00002D308F1010801E092185B41B8F1000F95
:1005B00003DA00200146BDE8F08D00204FF48011E1
:1005C000064684460EE0171B73EB050705D3121B86
:1005D00063EB050306434CEA010C49084FEA30007F
:1005E00092185B4150EA0107EDD152EA030012D0A4
:1005F00082EA040083EA0501084305D0101BAB41E1
:1006000006D20122002306E000224FF0004302E060
:100610006FF0010253101AEB06004CEB085110EB7F
:100620000A0041EB0B01BDE8F04D00F055B8C1F3F5
:100630000A52C1F3130140F2FF3341F480119A4290
:1006400002DA00200146704740F233439A42A2F298
:10065000334202DC5242FFF752BEFFF741BE0000B8
:1006600030B5041E71F1000404DB4FF00044404239
:1006700064EB0101141E73F1000405DB1C464FF00E
:100680000043524263EB0403994208BF904230BDDD
:10069000064C074D06E0E06840F0010394E80700CF
:1006A00098471034AC42F6D3FFF784FD48BD0008EC
:1006B00068BD0008202A06DBCB17203A41FA02F079
:1006C00043EAE07306E041FA02F3D040C2F12002AF
:1006D000914008431946704710B5141E73F1000489
:1006E00008DA401C41F1000192185B411A4301D124
:1006F00020F0010010BD2DE9F04D92469B4611B14E
:10070000B1FA81F202E0B0FA80F220329046FFF7AF
:10071000E7FD04460F4640EA0A0041EA0B01534652
:100720005A46084313D0114653EA010019D0C8F1C4
:1007300040025046FFF7E3FD05460E465046594637
:100740004246FFF7CDFD084305D0012004E02046D6
:100750003946BDE8F08D0020054346EAE0762C439B
:1007600037430A986305E40AA0EB08000022FD0A5B
:1007700044EA47540A3002D500200146E9E7010562
:1007800010196941DDE9084500196941BDE8F04DDE
:10079000A2E770B58C1810F8015B15F0070301D1C2
:1007A00010F8013B2A1106D110F8012B03E010F8D4
:1007B000016B01F8016B5B1EF9D12B0705D40023F7
:1007C000521E0DD401F8013BFAE710F8013BCB1A99
:1007D000921C03E013F8015B01F8015B521EF9D58E
:1007E000A142D8D3002070BD454910B54A6822F413
:1007F00040324A604A6843681A434A6001684A685E
:1008000022F480724A6001684A68036942EA03225E
:100810004A6001684A6822F040724A6001684A688A
:1008200083681A434A6001688A6822F400628A6019
:1008300001688A68C3681A438A60816A6FF07062CF
:10084000D14201688A6822F070628A6001688A6811
:100850000CD0836A1A438A6001688A6822F0405289
:100860008A6001688A68C36A1A4301E022F0405234
:100870008A6001688A6822F002028A6001688A68D8
:10088000836942EA43028A60016A002901684A6872
:100890000FD042F400624A6001684A6822F4604264
:1008A0004A6001684A68174C436A04EB43331A43B1
:1008B00001E022F400624A600168CA6A22F4700210
:1008C000CA620168CA6A838B0F4C04EB03531A4354
:1008D000CA6201688A6822F400728A6001688A68C4
:1008E000036B42EA43228A6001688A6822F48062CC
:1008F0008A6001688A68406942EA8020886010BD89
:100900000023014000E0FFFF0000F0FF7CB505463A
:1009100000F0DCF8044600F0D3F802460020CDE9F0
:1009200000050748074B006800EB800101EBC001A0
:1009300003EB81012346C96D00F01CFD7CBD000066
:1009400018000020180200200A4B30B41B6803EB8B
:100950004304094B03EB84039B68DD881C689B8878
:10096000DB1DDB08203A13FB02F205FB024230BC20
:1009700000F0F0BB1800002030030020034840685E
:100980008068002800D00047704700001800002051
:100990002DE9F0470446002799468A461546B84691
:1009A000104601E008F1010810F8011B0029F9D1F7
:1009B00000F086F8254A264E4B461168B9F1010F22
:1009C00001EB410106EB810189688988B0FBF1F0F8
:1009D00002D0022B0BD105E0A0EB0800484304EB4A
:1009E000500003E0A0EB080000FB014084B29046F9
:1009F00000F066F80146D8F8000000EB400006EB76
:100A000080008068808807FB101189B2814213D36F
:100A1000012012E051462046FFF796FFD8F800006B
:100A20007F1C00EB400006EB8000BFB280686D1CAD
:100A30008088204484B2DBE700202A780AB10121B3
:100A400000E000210842E5D1BDE8F0871800002051
:100A50003003002010B50A46034600F023F8C08892
:100A6000BDE81040584381B203230020FFF790BF38
:100A700070B514460D46064600F022F8074905FBFE
:100A80000060096801EB810202EBC101044A02EB3C
:100A90008101C96D41F8204070BD000018000020A0
:100AA0001802002004480549006800EB400001EBF3
:100AB000800080687047000018000020300300208C
:100AC00001484068806A00471800002001484068DB
:100AD000C06A00471800002070B5214C1F4800254F
:100AE0002060092060610120A0611D20E0610320D9
:100AF000206240F20D10606240F24310A06240F2AA
:100B00001710E06240F24710206384F8365084F8F2
:100B1000345004F1E80084F8355008210160C02108
:100B2000016104218161C903416202F009F9656034
:100B3000A560E560256100F059F8204601F074FFDA
:100B40000949084848600068804700F005F90648F0
:100B5000083000F0E7F8002070BD00000068014098
:100B6000180200204C0000201800002070B58EB044
:100B700000240E4605460094FFF7A2FFCDE90104CC
:100B8000FFF7A4FF0996CDE90304FF20CDE9050492
:100B90008DF830408DF831408DF832404FF4C06010
:100BA000079007200890FFF78BFF0A90FFF78EFF52
:100BB0000B902A4669460A4801F0F4FE094905EB04
:100BC000450001EB8002631E5360074B93604FF0BA
:100BD0007F4241F82020024801F00EFF0EB070BDA8
:100BE00018020020300300202000002030B54348C8
:100BF00087B00021026842F080620260006800F065
:100C0000806005903D481438026842F4000202609A
:100C1000026802F400020592026842F001020260DA
:100C2000026802F001020592026842F002020260CC
:100C3000026802F002020592026842F004020260B9
:100C4000026802F004020592026842F008020260A3
:100C5000026802F008020592026842F02002026077
:100C6000026802F020020592026842F0400202602F
:100C7000006800F04000059041F658000090022006
:100C8000CDE9010103900E20049069461C4801F053
:100C90009BF84FF470601B4C00906946204601F0B1
:100CA00093F84FF4986000906946174801F08CF86B
:100CB000482000906946154801F086F820150090FC
:100CC0006946134801F080F84FF40C60114D009014
:100CD0006946284601F078F8032000900920049026
:100CE0006946204601F070F84FF4A0500090694624
:100CF000284601F069F807B030BD000044380240D2
:100D0000000002400004024000080240000C0240C3
:100D100000140240001802400149086070470000BA
:100D2000180000200449054A096801EB410102EB63
:100D30008101886070470000180000203003002007
:100D40000349044A096801EB410142F82100704758
:100D5000180000203003002070B51B4819490423F7
:100D6000016000F13401022207248B60C1E90024F4
:100D7000C1E903424A618A611021C0E9033140217F
:100D8000416101260024C0E901644FF4C071C0E94B
:100D900006149102C0E9081489008162214600F01E
:100DA0005BF809490848343102F001FD074D08B1EC
:100DB0002E7000E02C7040F26A5000F009F828789C
:100DC00070BD0000400100A0080400203800002091
:100DD0002DE9F84F1F4C0025012608270095C4E98E
:100DE0000067C4E9026582464FF6FF7921464A460C
:100DF000A1F1500002F010FD012000F0B1FE022030
:100E0000C4E90007C4E9026521464A46A1F1500041
:100E100002F002FD03204FF00408E56084E8810140
:100E200021464A46A1F1500002F0F6FC4FF40C7046
:100E30000090C4E90260C4E9008721464A46A1F156
:100E4000500002F0E9FC5146A4F15000BDE8F84F13
:100E500002F0D0BC5804002030B587B005007DD02A
:100E60004D480024016841F00101016000684A49D1
:100E700000F0010008390590086840F4800008601F
:100E8000086800F480000590086840F002000860DF
:100E9000086800F002000590086840F0040008604F
:100EA000086800F004000590086840F00800086039
:100EB000086800F008000590086840F0100008601D
:100EC000086800F010000590086840F020000860F5
:100ED000086800F020000590086840F040000860B5
:100EE0000868694600F0400005900220CDE9024004
:100EF00001900C20049060200090284800F064FFCE
:100F0000012000906946264800F05EFF4CF2037015
:100F100000906946234800F057FF4FF68370009019
:100F20006946214800F050FF4FF63F0000906946A7
:100F30001E4800F049FF48F23310009069461C48F3
:100F400000F042FF1B498020C1E901408000C860D9
:100F50004000086180004861800000E01AE0C1E9BB
:100F60000604C000C1E908040320C1E90A041248CC
:100F70000C630860296308468D6300F05BFD0D4833
:100F800000F084FD00220F21382001F0A7FE382058
:100F900001F098FE07B030BD38380240000402402E
:100FA00000080240000C0240001002400014024001
:100FB00000180240480300201064024070B50B4D39
:100FC0000B4C012628806980616882208847A0F543
:100FD0000061113908D1EC60002621688220884721
:100FE000E868C16882208847304670BD3C00002018
:100FF00084000020FEE7F0B50468059E656C46EAB3
:10100000034305F040451D4365640368DA634268A5
:10101000B2F5403F02D00068C160F0BD01F47F42EC
:1010200001F47F0C866801F07F4301F47F0701F42F
:101030007F45CCB242EA0C02BEB1012E16D001F4BB
:101040007F02D20CC1F3C401022E11D0032E14D0A2
:10105000190F3A0D2D0B23092C0144EA022242EA12
:1010600001321A4300688263F0BD1A432243F9E754
:10107000AB0A5B0143EAC22206E0DB0FEC0A640123
:1010800044EA822242EAC3320A43EBE701681823AA
:10109000CAB2103AB2FBF3F2054B6FF30901032A0F
:1010A0009B5CC36500D9091D816508467047000037
:1010B00024BD000810B5014600208B698A6A4FF0F4
:1010C000C07453B1B3F5005F15D072B1012A0CD0D2
:1010D000022A0AD0032A09D104E01AB1012A06D053
:1010E000022A03D1C96AC90100D5012010BDC96A0D
:1010F000A142FAD010BD002AF7D0012AF2D0022A6C
:10110000F3D0032AF3D010BD10B500224FEA02013C
:1011100000EB8203521CC3F87C130F2AF8D3002281
:101120004FF400738418521C84F81C119A42F9D3AE
:101130000170417001228270C0F8B813027640231A
:101140008371417680F81C1380F81D23002010BDA8
:10115000704700002DE9F74FDFF8A4A00026DAF869
:10116000000000EB4001274800EB81008068858883
:10117000C788E81D834620F00700401B00F0FF09E8
:101180003AE000BF4FEADB010298012901FB0600AB
:101190000BD002290BD0017842780904807841EA0B
:1011A000022141EA000800241FE0007801E00088E5
:1011B00040BA8046F7E7291B49440120491E884070
:1011C00010EA080FDAF8000000EB40010D4802D0E9
:1011D00050F8212002E000EB81004268009801995C
:1011E000204480B2FFF744FC641CAC42E3D3019876
:1011F000401C80B2761C0190BE42C3D3BDE8FE8F76
:10120000180000203003002070470022AFF3008058
:1012100030B50E4B054601205C7A002C14D1587A6B
:101220001C54587A03EB800045605D7A03F1080096
:101230002A54587A421C5A72303008703A2048704A
:101240002F208870CC70002030BD00003C1E002094
:1012500030B5D1E901231A43D1E903352B431A43B1
:101260004B690C681A438B691A43D1E90735012C85
:10127000496A046807D01A432A436FF30E040A43ED
:10128000224302600AE024F4F8442B4321430B4339
:10129000416803606FF30E010A434260002030BDD5
:1012A000426942EA4101416100207047F8B51446A5
:1012B0000546D1E9000210438A686FF01F03C96830
:1012C00003EB421242EA412108430090286100F0FA
:1012D00067FE064609E0601C07D024B100F060FEFE
:1012E000801BA04201D90320F8BDA8698006F2D472
:1012F0000020F8BDF0B56FF00F05D1E9003405EB23
:1013000004145B1E23432E018C682F0306EB042478
:1013100023434FEA054C0C8A8E8ACD68097E4FF034
:101320007F4E07EB04440CEB06560EEB0161012ADD
:101330000CD082683F1107EB05352B432343334321
:1013400002F070420B43134383600FE08768084A42
:1013500017402A03A2F580523243C5683A4323431B
:1013600005F070450B432B438260C3600020F0BD45
:10137000FF0F0FFF2DE9F8430E460746DDE9081879
:10138000124815464FF4403242600022C0E9022163
:101390000F491C46016000F059FA002814D1394663
:1013A0000A4800F0FFF900280ED12B46324641468C
:1013B0000648009400F012FB002805D1BDE8F84370
:1013C0000A21024800F084BABDE8F883C002002078
:1013D00000B0024078B50024009490F83C20012A27
:1013E00019D0012280F83C200A6807230568092AE1
:1013F00013D9EE680A3A02EB420293409E43EE6034
:101400000A788B680A3A02EB420293400268D56878
:101410002B43D36010E0022078BD2E6902EB42021C
:1014200093409E432E610A788B6802EB4202934000
:10143000026815692B4313614A681F23072A13D2D8
:1014400005686E6B521E02EB820293409E436E63F0
:101450000B790A885B1E92B203EB83039A40036800
:101460005D6B2A435A6327E005680D2A12D22E6B62
:10147000D21F02EB820293409E432E630B790A88AF
:10148000DB1F92B203EB83039A4003681D6B2A4370
:101490001A6311E0EE6A0D3A02EB820293409E431A
:1014A000EE620B790A880D3B92B203EB83039A40FC
:1014B0000368DD6A2A43DA62174B0568154A9D42C4
:1014C00006D10D68122D03D1556845F4800555608D
:1014D00005689D4219D1114D0B68AB4201D0112B0B
:1014E00013D1536843F4000353600968A9420CD137
:1014F0000B490C4A0968B1FBF2F101EB810149008B
:1015000000E0491E00910029FBD180F83C400020FA
:1015100078BD0000002301400020014012000010AF
:101520004001002040420F000068C06C704770B559
:1015300004004FF0000503D0206C002610B107E036
:10154000012070BD666484F83C60204600F01AF803
:10155000206CC00610D4206C20F4885040F00200AB
:1015600020642046FFF740F96664206C20F00200FA
:1015700040F00100206400E0012584F83C6028462A
:1015800070BD000030B587B0044614216846FEF7F0
:1015900073FE1949206888422CD11848002401683C
:1015A00041F480710160006800F480700590134878
:1015B0001438016841F004010160016801F0040180
:1015C0000591016841F0010101600068032500F008
:1015D000010005900820CDE90005694602940848FD
:1015E00000F0F2FB2020CDE9000569460294054891
:1015F00000F0EAFB07B030BD002001404438024053
:1016000000080240000002402DE9F0410446006855
:101610000D4681684FF0000749050BD58068C0056D
:1016200008D5206C40F02000206484F83C70012034
:10163000BDE8F08100F0B4FC06460FE0681C0DD058
:1016400025B100F0ADFC801BA84207D9206C40F00A
:101650000400206484F83C700320E9E720680068F7
:101660008007EBD521686FF012000860206C40F411
:10167000007020642068816811F0405F13D1A16977
:1016800089B9C16A11F4700F02D0806840050AD48C
:10169000206C20F480702064206CC00403D4206C83
:1016A00040F0010020640020C2E7000018B50021CE
:1016B000009190F83C20012A07D0012280F83C20BC
:1016C00002689368DB0702D011E0022018BD93681E
:1016D00043F001039360204A204B1268B2FBF3F2FF
:1016E00002EB420200E0521E0092002AFBD1026887
:1016F0009368DB072DD0036C40F20164A34343F4ED
:101700008073036453685B0505D5036C23F40053B1
:1017100043F480530364036CDB0404D5436C23F06F
:101720000603436400E0416480F83C100C496FF00C
:101730002203136049680068C90602D0094988423B
:1017400007D1816811F0405F03D1816841F0804189
:101750008160002018BD00004001002040420F00C1
:10176000002301400020014090F83C1001290CD0DA
:10177000012180F83C1001688A6822F001028A6029
:1017800001688968C90702D007E002207047016C30
:1017900021F4885141F001010164002180F83C10DE
:1017A0000846704770B500EB011290F838301832D7
:1017B000012B20D0012580F83850022380F83930E1
:1017C00054680A2C19D0092C17D01389167B1B04D6
:1017D00043EA066323431C4CB1B10168CE6926403D
:1017E0001E43CE6103681168196151680A291ED031
:1017F00009291CD020E0022070BDD368168903F0AF
:101800007F4343EA0643E5E70668716A21401943CE
:10181000716203681168996151680A2901D0092928
:101820000AD1D168026821F07F41916204E0D16859
:10183000026821F07F41116280F83950002180F860
:101840003810084670BD0000F0FFFC0070B50400C1
:1018500004D094F83900002510B106E0012070BDD5
:1018600084F83850204600F01FF8022084F8390030
:1018700020680168626821F44031114301602068EA
:10188000416BA26821F00701114341632068016C9C
:10189000E2686FF30D0111430164E563012084F8F0
:1018A0003900002070BD000008B500680649884274
:1018B00008D10648016841F400010160006800F4A5
:1018C0000000009008BD000000B002403038024027
:1018D0002DE9F84300260446009600680D4600688E
:1018E0004FF00407C0074FF0030825D000F058FB65
:1018F00081461DE04068009010F0210F0FD0009845
:10190000800603D5E06B40F00200E0630098C0075A
:1019100003D0E06B40F00100E063212032E0681C5E
:1019200006D0C5B300F03CFBA0EB0900A8423CD8B0
:10193000206841688907DDD52068C169890602D41D
:10194000406A800640D500F02BFB814638E04068B5
:10195000009010F0290F1FD00098000703D5E06B0E
:1019600040F00400E0630098800603D5E06B40F08F
:101970000200E0630098C00703D0E06B40F0010074
:10198000E06329202168886084F8397084F8386021
:101990000120BDE8F88308E0681C11D02DB100F0EB
:1019A000FFFAA0EB0900A8420AD954F83C0F40F016
:1019B000200044F8040984F8018026700320E8E739
:1019C00020684168C906C2D52168122088600120BC
:1019D00084F8390084F838600020DAE738B5044626
:1019E000049894F83850012D10D0012584F838500F
:1019F000022584F8395000902046FFF7FCFA206851
:101A0000016841F001010160002038BD022038BDAD
:101A100090F83510022903D08021416501207047DC
:101A2000052180F835100068016821F0010101608E
:101A30000020704770B5040025D094F835000228C6
:101A400020D02068016821F0010101602068002594
:101A5000056020684560206885602068C560206852
:101A600005612168212048612046FFF70FFB94F8AB
:101A70005C203F2191408160656584F8355084F891
:101A80003450002070BD012070BD00002DE9F041F0
:101A9000044600F085FA06465CB1002584F834500F
:101AA000022084F835002068016821F001010160FE
:101AB0000DE00120BDE8F08100F072FA801B0528DE
:101AC00005D920206065032084F83500F2E72068FE
:101AD0000068C007F0D12268116820480140D4E9AD
:101AE00001031843D4E903363343184363691843A9
:101AF000A3691843E3691843236A18430843616ADA
:101B0000042903D1D4E90B1319430843106020685A
:101B10004069666A20F0070130460E430127042819
:101B20000CD1A06A0643E06A40B12046FFF7C2FA32
:101B300020B14020606584F83570BAE720684661BE
:101B40002046FFF7A3FA94F85C203F219140816082
:101B5000656584F835700020ACE700003F8010F028
:101B600070B5044600F01CFA0546601C02D004481B
:101B70000078044400F014FA401BA042FAD370BD70
:101B8000340100202DE9F0412B4886B0016800297E
:101B90004FD14FF00108C0F80080284800240168A8
:101BA00041F0010101600068022500F0010005908C
:101BB0004FF63F00CDE9000502AA03260C2782E874
:101BC000D00069461E4800F0FFF802AA694682E884
:101BD000D000CDE900851B4800F0F6F848F233103C
:101BE000CDE9000502AA694682E8D000164800F057
:101BF000EBF84FF68370CDE9000502AA694682E84A
:101C0000D000124800F0E0F84CF20370CDE9000576
:101C100002AA694682E8D0000D4800F0D5F860209D
:101C2000CDE9000502AA694682E8D000094800F023
:101C3000CBF806B0BDE8F08128010020383802401A
:101C40000014024000080240001802400010024048
:101C5000000C0240000402402DE9F04FDFF838B1DB
:101C600000224FF001094FF00F0A00BF09FA02F4F9
:101C700001EA0403A3427DD1066857000325BD4055
:101C8000AE430660D60800EB8606D6F820C057079C
:101C90004FEAD7680AFA08F72CEA070CC6F820C002
:101CA0008668AE4386604668A6434660C468AC4317
:101CB000C46022F003055D44D5F808789407260F28
:101CC0000AFA06F4DFF8D4C02740604502D14FF08D
:101CD000000C40E0DFF8C8C0604502D14FF0010CB5
:101CE00039E0DFF8C0C0604502D14FF0020C32E0AD
:101CF000DFF8B4C0604502D14FF0030C2BE0DFF8F1
:101D0000ACC0604502D14FF0040C24E0DFF8A0C065
:101D1000604502D14FF0050C1DE0DFF898C060452A
:101D200002D14FF0060C16E0DFF88CC0604502D1FE
:101D30004FF0070C0FE0DFF884C0604502D14FF090
:101D4000080C08E0DFF878C0604502D14FF0090CBC
:101D500001E04FF00A0C0CFA06FCBC4516D1D5F890
:101D60000868A643C5F80868164C25689D43256099
:101D7000241D00E00AE025689D432560241D256898
:101D80009D432560241D25689D432560521C102A13
:101D9000FFF46CAFBDE8F08F00300140000002405E
:101DA0000004024000080240000C02400010024003
:101DB0000014024000180240001C024000200240B3
:101DC00000240240003C01402DE9F84FDFF890B1BB
:101DD00000224FF001084FF0030A4FF00F090BF1FA
:101DE000040E00BF0B6808FA02F42340A3426ED130
:101DF0004D68022D01D0122D0ED1D50800EB850CB7
:101E0000DCF820505607F70E09FA07F6B5430E69BD
:101E1000BE402E43CCF82060066855000F790AFAC0
:101E200005FC07F0030726EA0C06AF4037430760BE
:101E30004E68012E05D0022E03D0112E01D0122E95
:101E40000ED18768CE6827EA0C07AE403E43866015
:101E50004668A6430C79C4F30014944034434460AC
:101E6000C4688E6824EA0C04AE402643C6604C6801
:101E7000E4006FD53B4C256845F480452560246817
:101E800022F0030504F480440094374C2E19D6F850
:101E9000084895072F0F09FA07F5AC43334DA842C0
:101EA00001D100252EE0324DA84201D1012529E0C3
:101EB000304DA84201D1022524E02F4DA84201D186
:101EC00003251FE02D4DA84202D104251AE041E070
:101ED0002B4DA84201D1052514E02A4DA84201D17D
:101EE00006250FE0284DA84201D107250AE0274D1D
:101EF000A84201D1082505E0254DA84201D10925B8
:101F000000E00A25BD402543C6F80858DBF800402C
:101F10005D464E689C43F60300D51C432C60DEF8FA
:101F2000004075464E689C43B60300D51C432C60A8
:101F30000B4D08352C684E689C43F60200D51C43B7
:101F40002C60074D0C352C684E689C43B60200D5BA
:101F50001C432C60521C102AFFF444AFBDE8F88FDC
:101F6000003C014044380240003001400000024083
:101F70000004024000080240000C02400010024031
:101F80000014024000180240001C024000200240E1
:101F9000002402400AB1816170470904FBE7000098
:101FA000014880687047000034010020D0F8940296
:101FB00004F0D0BAD0F8940204F0E0BA006805F05A
:101FC00025BB01EB810100EBC10090F85C0070477C
:101FD00001EB810100EBC100C06C704710B50446F5
:101FE00090F89002012809D0012084F8900220681E
:101FF00005F014FB002084F8900210BD022010BDF3
:10200000FEB50546DDE9096095F89042089F012C70
:102010001ED0012485F8904201EB810405EBC40435
:1020200002F07F0C04F8383F20816170E67184F87B
:1020300002C04FEAD21C84F803C027710097CDE993
:102040000160286805F08EFB002185F89012FEBD26
:102050000220FEBD70472DE9F00301EB8104DDE9AC
:102060000689DDE908C700EBC404022684F83B209A
:1020700084F83F30B8F1000F0AD084F842600025A0
:1020800053B1012B3FD0022B1DD0032B2AD120E0CE
:10209000032584F84250F2E7B8F1010F22D10ABBC0
:1020A000BCF1000F10D1012284F8512002E084F825
:1020B000425001E084F8426094F85C20022A11D07A
:1020C00084F83D700EE02AB994F85120002AF1D12D
:1020D000EDE712B194F8502001E094F8512092B14C
:1020E00084F84260C4E9119C84F85C50E56484F88B
:1020F000391084F85D50027C04F138010068BDE8B5
:10210000F00305F0ABBB84F84250EBE72DE9F0415A
:10211000044600680025064605F07CFA01287DD1BA
:10212000206805F0E4FC002878D0206805F0DFFC8A
:10213000800203D521684FF400104861206805F043
:10214000D6FCC00203D521684FF480104861206896
:1021500005F0CDFC400103D521684FF08060486157
:10216000206805F0C4FC800702D521680220486180
:10217000206805F0BCFC800010D5D6F8400420F0A3
:102180002E00C6F840042046FFF714FF0121206806
:1021900005F092FC21684FF000504861206805F07E
:1021A000A6FCC00102D5204602F099FB206805F08C
:1021B0009EFC000705D5204600F0A4F82168082001
:1021C0004861206805F093FC800120D5206805F067
:1021D0003EFB07464FF0010812E000BF08FA05F089
:1021E00038420CD006EB4510D0F80005E9B20004E7
:1021F000204602D502F04FF901E002F065FA6D1CAD
:10220000A068A842EAD821684FF0007048612068B1
:1022100005F06DFCC0060ED5206800E00BE081697A
:1022200021F010018161204602F0B0FB2068816935
:1022300041F010018161BDE8F08130B58BB0040040
:1022400026D0032084F89102204600F023F820686D
:1022500005F078F904F1100128220D466846FDF7D3
:10226000F2FF94E80F0005F01BF90121206805F04A
:1022700052FC282229466846FDF7E5FF94E80F0046
:1022800005F0B0FB012084F8910200200BB030BDB6
:102290000120FBE730B50068174987B0884228D194
:1022A0004FF45040009002200024CDE901040C209E
:1022B000CDE90340114D69462846FFF785FD4FF4EF
:1022C0000050CDE90004694628460294FFF77CFDE2
:1022D0000B48016841F0005101600068002200F0E5
:1022E0000050059011464D2000F0F8FC4D2000F004
:1022F000E9FC07B030BD00000000044000040240CB
:1023000030380240D0F8940204F077B910B5044692
:1023100090F8900201280DD0012084F890022068E6
:1023200005F04CF90121206805F032F9002084F80D
:10233000900210BD022010BD10B5044690F8900226
:10234000012809D0012084F89002206805F0F9FBEB
:10235000002084F8900210BD022010BD90F83D20AE
:10236000202A01D002207047242280F83D200268F4
:10237000136823F0010313600268536A23F010030B
:1023800053620268536A0B43536201680A6842F061
:1023900001020A60202180F83D100020704790F86B
:1023A0003D20202A01D002207047242280F83D20C1
:1023B0000268136823F00103136003685A6A22F06D
:1023C0000F020A4391B2596201680A6842F00102A1
:1023D0000A60202180F83D100020704710B50400ED
:1023E00013D0242084F83D002068016821F0010109
:1023F0000160204600F02EFA0020206484F83D00A1
:1024000044F8300FA073207310BD012010BD90F868
:102410003D00704770B5040004D094F83D000025DD
:1024200010B106E0012070BD84F83C50204600F059
:102430002FFA242084F83D002068016821F0010172
:10244000016000F02FFE33492268B0FBF1F15160CA
:10245000314A6368934206D94FF4967359434FF457
:102460007A73B1FBF3F12368491C196261689142E8
:102470000BD84900B0FBF1F2C2F30B02042A01D2DF
:10248000042019E0B0FBF1F016E0A3689BB301EB68
:10249000C10202EB0112B0FBF2F242F480421205DB
:1024A00030D04BB301EBC10202EB0111B0FBF1F0F4
:1024B00040F4804040F400402168C861D4E907013D
:1024C000084321680860D4E9031008432168886044
:1024D000D4E9050108432168C8602068016841F01B
:1024E000010101602564202084F83D00256384F803
:1024F0003E50002070BD00E006E001EB4102B0FB61
:10250000F2F2CCE70120D7E701EB4101B0FBF1F09B
:10251000D0E7000040420F00A08601002DE9FF4FE8
:1025200083B09A46DDE9118793460446DDF8409072
:10253000FFF736FD054694F83D00202874D1192395
:10254000012272492046009502F05DFB0028F5D17A
:1025500094F83C00012867D0012084F83C002068F2
:102560000168C90703D1016841F0010101602068D9
:10257000016821F400610160222084F83D004020C0
:1025800084F83E0000262664C4F82490A4F82A802B
:102590005F48E062608D2085CDE9007553465A465C
:1025A0002046049902F03FFA28B1206C84F83C6080
:1025B000042843D076E0208DC8B1012820D002281D
:1025C000206823D0416980690090208D03286BD852
:1025D00001282AD04F4902283B464FF000020095BF
:1025E0005BD08846204602F00EFBE8BB40E0206846
:1025F000416981690091016841F40071016076E0F0
:102600002068016821F480610160F0E7016821F42D
:10261000806101602068016841F400610160206808
:1026200041698069009062E06EE02A4639462046A2
:1026300002F05EFB30B1206C202833D0012007B0BF
:10264000BDE8F08F206847E02068016841F4007120
:10265000016020680169606A421C62620170208D1D
:10266000401E2085608D00E01CE0401E6085E9E78B
:102670002068016821F48061016020680169606A56
:10268000421C62620170208D401E2085608D401EBC
:1026900060853B46002241460095204602F0B3FA91
:1026A0000028D1D00320CAE72A463946204602F046
:1026B0001FFB0028BFD120680169606A421C62626A
:1026C0000170208D401E2085608D401E6085206831
:1026D0004169C94349070AD40169606A421C6262C0
:1026E0000170208D401E2085608D401E6085208DEC
:1026F00000287FF46AAF202084F83D0084F83E6013
:1027000084F83C6000209AE7022098E7020010005D
:102710000000FFFF040001002DE9FF4F83B09A463F
:10272000DDE9118793460446DDF84090FFF738FC59
:10273000064694F83D0020287DD119230122434903
:102740002046009602F05FFA00287CD194F83C0005
:10275000012878D0012084F83C0020680168C9076E
:1027600003D1016841F0010101602068016821F492
:1027700000610160212084F83D00402084F83E0083
:1027800000252564C4F82490A4F82A803048E0622B
:10279000608D2085CDE9007653465A46204604993F
:1027A00002F0BAF980B3206C84F83C50042848D079
:1027B00008E032463946204602F0CBFA30B1206CB0
:1027C000042839D0032007B0BDE8F08F606A411CAF
:1027D0006162216800780861208D401E80B22085EA
:1027E000618D491E618521684A69D24352070BD425
:1027F00068B1606A421C626200780861208D401EE8
:102800002085608D401E6085208D0028D1D1324604
:102810003946204602F0D0F90028D0D154F83D0BBB
:10282000016841F400710160202004F81E09E57779
:1028300065770020C7E706E02068016841F4007171
:1028400001600120BFE70220BDE700000200100088
:102850000000FFFF10B50068094988420FD1094800
:10286000016821F40001016041150748FFF7F4F900
:10287000BDE810404FF480710448FFF7EDB910BD7A
:10288000005C004040380240000802400000024066
:10289000F0B587B0044614216846FDF7EDFC1C49ED
:1028A0002068884231D11B480024016841F00401AE
:1028B0000160016801F004010591016841F0010126
:1028C00001600068122500F0010005904FF40070CF
:1028D00001268DE861000427CDE9034769460E48CB
:1028E000FFF772FA30028DE86100CDE903476946CF
:1028F0000A48FFF769FA07481030016841F40001FF
:102900000160006800F40000059007B0F0BD000011
:10291000005C0040303802400008024000000240E5
:1029200002488168027811448160704734010020B8
:102930000B4810B5016841F400710160016841F471
:1029400080610160016841F480710160032000F042
:10295000E5F9002000F006F800F09AF9002010BD1B
:10296000003C024070B50D4D04464FF47A71287852
:10297000B1FBF0F00A490968B1FBF0F001F050FA40
:1029800048B9102C07D200222146501E00F0A6F9AB
:1029900000206C6070BD012070BD0000340100207B
:1029A000400100202DE9F041044690F8A0001646B1
:1029B0000F4601281DD0012584F8A050022084F87C
:1029C000A10006EB860000EBC60004EB8000342279
:1029D0003830FDF738FC32463946204602F0A4FB79
:1029E0002068456284F8A150002084F8A000BDE86A
:1029F000F0810220FBE7000090F8A01001290ED022
:102A0000012100F8A01F02224270064A136843F415
:102A10008033136041700021017008467047022026
:102A2000704700001868014070B5040004D094F8A5
:102A3000A100002510B106E0012070BD84F8A0506F
:102A4000204600F06BF8022084F8A100206881691C
:102A500021F070418161D4E901010843D4E90312F6
:102A60001143084321688A691043886121688A6894
:102A7000294802408A60A18A0A0421688B68A669F5
:102A8000334313438B602168CA680240CA60A18B3C
:102A90000B042168CA68266A32431A43CA60216857
:102AA0000A6902400A61A18C22680B041169A66AB6
:102AB00031431943116121684A6902404A61A08D7E
:102AC000010420684269236B1A430A43426194F867
:102AD00035002168020294F83600CB6A03F07F4388
:102AE000CB622168CB6A94F8346042EA00403343F9
:102AF0000343CB622068416B41F0060141632068CB
:102B0000816941F001018161C4F8A450012084F879
:102B1000A100002070BD000000F800F02DE9F04198
:102B200086B0044614216846FDF7A6FB504920688C
:102B300088427CD14F480024016841F080610160E7
:102B4000006800F0806005904A481438016841F040
:102B500020010160016801F020010591016841F048
:102B600001010160016801F001010591016841F076
:102B700002010160016801F002010591016841F064
:102B800040010160016801F040010591016841F0D8
:102B900004010160016801F004010591016841F040
:102BA000080101600068022500F0080005904FF45C
:102BB00080600090CDE901540E26CDE903466946B8
:102BC0002D48FFF701F941F658000090CDE9015476
:102BD000CDE9034669462948FFF7F6F8032000903F
:102BE000CDE901540927DFF89880CDE9034769460C
:102BF0004046FFF7E9F84FF470600090CDE90154CA
:102C0000CDE9034669464046FFF7DEF84FF40C6015
:102C10000090CDE90154DFF86C80CDE903466946A8
:102C20004046FFF7D1F84FF49860009000E01CE0B8
:102C3000CDE90154CDE9034669461348FFF7C4F8CE
:102C400048200090CDE90154CDE9034669460F487C
:102C5000FFF7BAF84FF4A0500090CDE90154CDE948
:102C6000034769464046FFF7AFF806B0BDE8F0817C
:102C70000068014044380240001402400000024055
:102C8000000402400018024000080240000C02400C
:102C90000B4882B0016841F480410160006800F493
:102CA000804000900648001F016841F0805101609B
:102CB000006800F080500090072002B000F02EB8AD
:102CC0004438024000F01F02012191404009800079
:102CD00000F1E020C0F8001170470000F0B40E4B86
:102CE0001B680C46C3F30223C3F10705042D00D96A
:102CF0000425191D072901D2002300E0DB1E01264F
:102D000006FA05F1491E214099409E40761E164064
:102D10003143F0BC02F098BD0CED00E0064900F034
:102D2000070208684FF6FF03184040EA0220034AF2
:102D300010430860704700000CED00E00000FA0549
:102D40002DE9F84F04460068DFF804A2814F824D58
:102D5000C1074FF001084FF0000601D180073CD5B4
:102D6000CAF86860FFF71CF9814605E0FFF718F91B
:102D7000A0EB0900022878D828680001F6D4207852
:102D8000C107764805D06168227A890141EA02715B
:102D900001602178890711D501686268237B92015F
:102DA000C1F3027142EA036242EA017101603868CC
:102DB000E16920F01F00491E08433860CAF86880A6
:102DC000FFF7EEF8814605E0FFF7EAF8A0EB09000F
:102DD00002284AD828680001F6D52068410701D4A6
:102DE00000074CD5CAF87060FFF7DAF8814605E0B5
:102DF000FFF7D6F8A0EB0900022836D82868C043B0
:102E00008000F5D520784107554814D5016822691E
:102E1000237D9201C1F3027142EA036242EA017129
:102E200001603968226A6FF0FF0321F4F85103EB67
:102E30000222114339602178090710D501682269FF
:102E4000C1F30361920142EA0161227E41EA02710B
:102E500001603868616A20F4403008433860CAF87D
:102E60007080FFF79DF8074605E048E0FFF798F807
:102E7000C01B022843D82868C0438000F6D42078BD
:102E8000800653D534484030016841F080510160DC
:102E90000068344D00F080500090286840F4807045
:102EA0002860FFF77DF8074605E000BFFFF778F8D8
:102EB000C01B022823D82868C005F7D5274D143D2C
:102EC000286810F4407020D0218D01F440718142B7
:102ED0001BD02868244920F44070C1F800800E609F
:102EE00028602868C00710D0FFF75AF8064641F25C
:102EF000883707E0FFF754F8801BB84202D9032057
:102F0000BDE8F88F28688007F4D5A16A1248C1F39C
:102F100001220830032A13D0016821F4F81101605E
:102F20002868218DC1F30B01084328602078C00672
:102F300004D50E4994F82C00C1F8E0010020DFE729
:102F400002680B4B22F4F81219400A430260E7E7CB
:102F5000000047428C38024000380240843802406A
:102F60008838024000700040400E4742001047423F
:102F7000FFFCFF0F2DE9F0470E46050065D0DFF896
:102F80001481D8F80000F7B200F00F00B04207D269
:102F900088F80070D8F8000000F00F00B04254D15B
:102FA00028683D4C810712D5400703D5206840F4BE
:102FB000E05020602878000703D5206840F4604086
:102FC00020602068A96820F0F0000843206028787D
:102FD000C0072DD0304968680839012812D002286E
:102FE00013D0032811D00968890700292DDA216838
:102FF00021F0030101432160FEF7D2FF814641F237
:10300000883A0EE009688903EFE709688901ECE76F
:10301000FEF7C6FFA0EB0901514502D90320BDE828
:10302000F0872068696800F00C00B0EB810FEFD1E9
:10303000D8F80010404601F00F01B14207D90770DF
:10304000006800F00F00B04201D00120E7E72878C7
:10305000400705D52068E96820F4E0500843206067
:103060002878000706D52068296920F4604040EAE6
:10307000C100206000F036F82168084AC1F303114E
:10308000515CC840064908600020FFF76BFC002037
:10309000C5E70000003C0240083802402CBD000893
:1030A000400100200448054900680968044AC1F34A
:1030B0008221515CC840704740010020083802401E
:1030C0003CBD00080448054900680968044AC1F38A
:1030D0004231515CC840704740010020083802402E
:1030E0003CBD0008154810B5006810F00C021448EB
:1030F00013D04110042A0FD0082A0ED10F4C241FE0
:103100002268236802F03F025B0207D52068C0F303
:103110008810A0FB010106E0084610BD2168C1F33C
:103120008811A1FB00010023FDF75CF82168C1F3C1
:103130000141491C4900B0FBF1F010BD08380240C4
:103140000024F4002DE9F84F050076D02878DFF848
:10315000F8B2BE4CC00749D0DBF800105846C1F3A6
:103160008101012908D00068C0F3810002280AD13A
:10317000201D0068400206D52068800336D56868A7
:103180000028E2D032E06868B0F5803F10D0B0F59A
:10319000A02F206810D020F480302060206820F418
:1031A000802020606868A0B1FEF7FAFE06460CE0B9
:1031B000206840F48030F4E740F480202060F7E796
:1031C000FEF7EEFE801B642873D820688003F7D5D5
:1031D0000CE0FEF7E5FE064605E000BFFEF7E0FE68
:1031E000801B6428F0D820688003F7D42878DFF8A3
:1031F000608280074FF000093ED5DBF8001058468A
:1032000011F00C0F09D00068C0F3810002280BD127
:103210008D48001F0068400206D42068800715D53D
:10322000E868012809D111E0E868B8B10120C8F8C0
:103230000000FEF7B5FE064605E002E1FEF7B0FE2F
:10324000801B0228C0D820688007F7D5206829692C
:1032500020F0F80040EAC10020600DE0C8F80090BE
:10326000FEF79EFE064604E0FEF79AFE801B02284B
:103270001FD820688007F7D42878000722D5724E1F
:10328000744869696C3671B101210160FEF788FEEE
:10329000074604E0FEF784FEC01B022809D8306808
:1032A0008007F7D50EE0C0F80090FEF779FE0746DC
:1032B00005E083E0FEF774FEC01B02287ED830686C
:1032C0008007F7D42878400768D5DFF87CA100276D
:1032D0000AF1380ADAF80000C0000BD4DAF800105E
:1032E00041F08051CAF80010DAF80000012700F020
:1032F00080500090584E3068C00510D4306840F4BB
:1033000080703060FEF74CFE009005E0FEF748FE4E
:103310000099401A022851D83068C005F6D54A4EA7
:10332000A868683601280FD00528306810D020F032
:1033300001003060306820F004003060A868B8B147
:10334000FEF72EFE00900FE0306840F00100F4E739
:1033500040F004003060F7E7FEF722FE0099411AC2
:1033600041F28830814264D830688007F4D50EE09D
:10337000FEF716FE009007E0FEF712FE0099411AD4
:1033800041F28830814254D830688007F4D42FB19C
:10339000DAF8001021F08051CAF80010A869C0B313
:1033A000DBF80010C1F3810102294AD00228484607
:1033B00007D0C8F86000FEF7F3FD00E039E00546ED
:1033C0003AE04746C8F86000FEF7EAFD064604E02A
:1033D000FEF7E6FD801B02282BD820688001F7D479
:1033E000D5E907010843A96A1C4A490802EB0141D3
:1033F0006A6A41EA8211084395F82C1040EA01619B
:103400001148001F016001203866FEF7C9FD05461E
:1034100005E014E0FEF7C4FD401B022809D820682F
:103420008001F7D50BE000BFFEF7BAFD401B022874
:1034300002D90320BDE8F88F20688001F4D4002071
:10344000F8E70120F6E700000838024000380240A3
:1034500000004742800E4742007000400000FFFF1E
:1034600010B500680B4641680D480140080CD87043
:10347000C1F304245C7001F03F049C70C1F342313D
:10348000197052B902F0F7F9D870587802F0F3F9D0
:103490005870987802F0EFF99870002010BD000085
:1034A0003FFFFF0010B50B460168896A596001684B
:1034B0000969C1F30E019960006801680E48014076
:1034C000C1F305401870C1F306245C7001F07F045D
:1034D0009C70402404EA1141D97052B902F0CBF932
:1034E0001870587802F0C7F95870987802F0C3F94C
:1034F0009870002010BD00007F7F7F0070B5040031
:1035000002D0607F10B106E0012070BD002020775E
:10351000204600F049F8022060772168CA204862FE
:10352000216853204862204602F0BAF9FF2504269C
:1035300018BB206881681B4A114081602168886837
:1035400062681043D4E904231A4310438860216859
:10355000E068086120680169228941EA024101614D
:103560002068C16821F08001C16020688068800601
:1035700007D4204600F000F918B12068456266774C
:10358000C2E72068016C21F4802101642068016C8D
:10359000A269114301642068456201206077002020
:1035A00070BD0000BFFF8FFF00680349884202D151
:1035B0000249012008607047002800403C0E474245
:1035C0002DE9F0470446007F0B4601281FD04FF03D
:1035D000010984F81C9002206077DAB19878D978D4
:1035E00040EA014558781978000240EA4130054325
:1035F0002168CA204862216853204862204602F0B0
:103600004FF90026FF274FF0040860BB1AE00220A4
:10361000BDE8F0875878C10603D500F0EF000A3006
:103620005870D87802F030F90204587802F02CF97A
:1036300042EA0022987802F027F90243187842EA19
:103640004035D5E70F480540206845602068C168CF
:1036500021F08001C1602068806880060AD420467D
:1036600000F08AF830B12068476284F81D80267720
:103670000120CDE72068476284F81D90267700205E
:10368000C6E700003FFFFF002DE9F0470446007F3A
:103690000D46012811D04FF0010A84F81CA0022029
:1036A00060772068002680684FEA406042B10028B9
:1036B0001ADA287802F0DFF817E00220BDE8F08778
:1036C000002800DBEE70287802F0DEF8020468784B
:1036D00002F0DAF842EA0022A87802F0D5F80243B4
:1036E000E87842EA00470AE0EE70A878297840EAD4
:1036F00001476878E978000240EA01400743216801
:10370000CA204862216853204862204602F0C8F867
:103710004FF0FF084FF00409E0B916480740206851
:1037200007602068816821F480218160D5E9030168
:10373000084321688A68104388602068C16821F0C6
:103740008001C1602068806880060BD4204600F0AC
:1037500013F838B12168C1F8248084F81D902677C9
:103760000120ABE72168C1F8248084F81DA02677EA
:103770000020A3E77F7F7F0070B504460068C16822
:1037800021F0A001C160FEF70BFC05464FF47A76EC
:1037900007E000BFFEF704FC401BB04201D9032044
:1037A00070BD2068C0688006F4D5002070BD70B57B
:1037B0000D46040003D094F82C0010B107E001205E
:1037C00070BD002084F82D00204600F011F8022082
:1037D00084F82C00211D2068FDF73AFDD4E9000291
:1037E0002946FDF787FD012084F82C00002070BDDC
:1037F000FEF7C8B910B5044690F82C00022809D08D
:10380000022084F82C002068FDF74AFD012084F88E
:103810002C00002010BD000070B5044690F82C006C
:103820000D4602280DD0022084F82C002068FDF7F8
:103830003DFD2868022805D05FF0010084F82C00C7
:10384000002070BD0520F9E710B5040011D002205A
:1038500084F851002068016821F040010160204691
:1038600000F04CF80020606584F8510084F85000A6
:1038700010BD012010BD90F85100704770B50400D4
:1038800005D00025A56294F8510010B106E0012092
:1038900070BD84F85050204600F046F8022084F8AD
:1038A00051002068016821F040010160D4E9010164
:1038B0000843D4E903121143084361690843218B8B
:1038C00001F400710843E1690843216A0843A16AD1
:1038D000084321680860A069042101EA1040616A78
:1038E0000843216848602068C16921F40061C16112
:1038F0006565012084F85100002070BD006807490B
:10390000884209D10648016821F4801101604FF412
:1039100060710448FEF7A0B97047000000500140F4
:10392000443802400014024010B586B00446142109
:103930006846FCF7A1FC13492068884220D1124850
:103940000021026842F480120260006800F48010D6
:1039500005900D481438026842F0200202600068A9
:1039600000F0200005904FF4607000900220CDE937
:1039700001010520CDE9031069460448FEF724FA49
:1039800006B010BD0050014044380240001402400F
:103990002DE9F84F044640680026984617460D4624
:1039A0004FF00409B0F5827F01D1A06890B194F87E
:1039B0005000012819D04FF0010B84F850B0FEF7E9
:1039C000EFFA009094F851004FF0000A01280ED051
:1039D00002267FE084F8519013460A462046CDF82F
:1039E000008000F031F9BDE8F88F0220FBE7002DE0
:1039F0006FD0002F6DD084F85190C4F854A0A56307
:103A0000A787E787C4F830A0A4F834A0A4F836A0AC
:103A1000C4F840A0C4F844A0A0684FF40047B842DE
:103A200004D12068016821F48041016020680168A8
:103A3000490603D4016841F040010160E068B8B173
:103A400033E020688168C90706D0007B05F8010BC8
:103A5000E08F401EE0870BE0B8F1000F23D0B8F1F3
:103A6000FF3F05D0FEF79CFA0099411A41451AD252
:103A7000E08F0028E5D11BE020688168C90706D0E7
:103A8000C06825F8020BE08F401EE0870DE0B8F11A
:103A9000000F08D0B8F1FF3F07D0FEF781FA009978
:103AA000411A414501D3032614E0E08F0028E3D1F9
:103AB0006068B0F5827F0AD1A068B84202D0B0F544
:103AC000806F04D12068016821F040010160606DC1
:103AD00000B1012684F851B084F850A0304682E746
:103AE0002DE9F84F044690F85000002699461746F5
:103AF0000D4601280DD04FF0010B84F850B0FEF7B1
:103B00004FFA804694F85100B246012804D00226AC
:103B100094E00220BDE8F88F002D7BD0002F79D0F3
:103B2000032084F85100C4F854A02563A786E786D3
:103B3000C4F838A0A4F83CA0A4F83EA0C4F844A05F
:103B4000C4F840A0A068B0F5004F04D12068016817
:103B500041F48041016020680168490603D401688E
:103B600041F040010160E068B0F5006F606804D08A
:103B700030B3E08E012823D03EE010B1E08E012862
:103B80001AD135F8021B206805E020688168890792
:103B900006D535F8021BC160E08E401EE0860BE0C2
:103BA000B9F1000F34D0B9F1FF3F05D0FEF7F8F9B5
:103BB000A0EB080149452BD2E08E0028E5D11EE09C
:103BC000216815F8010B087306E0206881688907F1
:103BD00006D515F8011B0173E08E401EE0860BE050
:103BE000B9F1000F14D0B9F1FF3F05D0FEF7D8F9B5
:103BF000A0EB080149450BD2E08E0028E5D14B46E9
:103C0000012202212046CDF8008001F076FE10B19D
:103C1000032613E011E042464946204601F05DFECE
:103C200018B101262020606508E0A06818B9206856
:103C3000C16880680090606D00B1012684F851B0C1
:103C400084F850A0304665E72DE9F84F044690F817
:103C5000500000260A9F9A4693460D464FF00108F1
:103C600001280ED0012084F85000FEF799F9814612
:103C700094F85100616801280CD0B1F5827F07D11A
:103C800002E00220BDE8F88FA16809B9042801D03C
:103C90000226BDE055B1BBF1000F07D0BAF1000F0D
:103CA00004D094F85100012802D004E00126AFE0CE
:103CB000052084F8510000206065C4F838B0A4F8ED
:103CC0003EA0A4F83CA02563A4F836A0A4F834A034
:103CD0002064606420680168490603D4016841F0EB
:103CE00040010160E068B0F5006F606804D0E8B39F
:103CF000E08E01283BD06AE010B1E08E01282ED181
:103D0000216835F8020BC860E08E401EE08626E090
:103D1000B8F1000F0DD0E08E58B120688168890796
:103D200007D535F8021BC160E08E401EE0864FF0DB
:103D30000008E08F58B120688168C90707D0C068C3
:103D40002BF8020BE08F401EE0874FF00108781C33
:103D500005D0FEF725F9A0EB0900B84246D2E08E67
:103D60000028D5D1E08F0028D2D136E0FFE72168C6
:103D700015F8010B0873E08E401EE08627E000BFB7
:103D8000B8F1000F0DD0E08E58B120688168890726
:103D900007D515F8011B0173E08E401EE0864FF039
:103DA0000008E08F58B120688168C90707D0C06853
:103DB0000BF8010BE08F401EE0874FF00108781CE4
:103DC00005D0FEF7EDF8A0EB0900B8420ED2E08E68
:103DD0000028D5D1E08F0028D2D13B460122022114
:103DE0002046CDF8009001F088FD08B103260FE0D1
:103DF0004A463946204601F070FD18B101262020C0
:103E0000606505E0A06818B92068C1688068009006
:103E1000012084F85100002084F85000304631E73A
:103E200010B5401EB0F1807F01D3012010BD4FF0CE
:103E3000E02460610F21601701F006FD0020A06101
:103E400007202061002010BD30B590F83820012AED
:103E500020D0012280F83820022380F8393003680E
:103E60005C6824F070045C6003685C680D682C4337
:103E70005C6003689C6824F080049C6003689C6814
:103E800049680C439C6080F83920002180F8381084
:103E9000084630BD022030BD10B5040003D094F8B0
:103EA000390010B107E0012010BD002084F838006F
:103EB000204600F00DF8022084F83900211D20680A
:103EC00001F052FE012084F83900002010BD0000EE
:103ED00008B500680649884208D10648016841F0E3
:103EE00002010160006800F00200009008BD0000BF
:103EF000000400404038024070B5044690F8380095
:103F0000012817D0012584F83850022084F83900A0
:103F10002068826822F0770222F47F42826008687B
:103F2000502837D00DDC202859D005DC88B3102864
:103F300041D151E0022070BD302853D040283AD101
:103F40003FE060282ED070280BD0B0F5805F03D002
:103F5000B0F5005F2FD110E02068816821F00701E3
:103F600015E0CB68D1E90121206801F068FE2168E5
:103F7000886840F0770088601DE0CB68D1E90121B6
:103F8000206801F05CFE2068816841F48041816016
:103F900011E01EE0CA684968206801F019FF50214D
:103FA000206806E0CA684968206801F022FF6021A5
:103FB000206801F04EFE84F83950002084F8380063
:103FC00070BDCA684968206801F002FF402120687E
:103FD000EFE700212068ECE710212068E9E72021C5
:103FE0002068E6E730212068E3E7000030B587B0BD
:103FF000044614216846FCF73FF9174920688842B7
:1040000027D116480024016841F0040101600168CD
:1040100001F004010591016841F0020101600068AE
:10402000022500F0020005904FF480700090CDE969
:10403000015469460A48CDE90345FDF7C5FE102045
:104040000090CDE9015469460648CDE90345FDF7E6
:10405000BBFE07B030BD0000000400403038024015
:10406000000802400004024070B5044690F8380091
:104070000D4601280DD0012684F83860022084F80E
:10408000390042B1042A18D0082A2AD00C2A4DD16E
:1040900039E0022070BD206801F0E4FD20688169EC
:1040A00041F0080181612068816921F0040181618A
:1040B000206881692A69114311E0206801F0FEFD42
:1040C0002068816941F4006181612068816921F47F
:1040D00080618161206881692A6941EA02218161E8
:1040E00024E0206801F01CFE2068C16941F008014D
:1040F000C1612068C16921F00401C1612068C16902
:104100002A69114311E0206801F03AFE2068C16974
:1041100041F40061C1612068C16921F48061C1611D
:104120002068C1692A6941EA0221C16184F83960C5
:10413000002084F8380070BD10B5040003D094F856
:10414000390010B107E0012010BD002084F83800CC
:10415000204600F00CF8022084F83900211D206868
:1041600001F002FD012084F83900002010BD7047E5
:1041700010B504460068012201F056FD0849206888
:10418000884202D00749884203D1416C41F4004182
:1041900041642068016841F001010160002010BD08
:1041A00000000140000401407047000070B5026843
:1041B00004461068D168536910F00F0F50D003F017
:1041C000010501F4907635435DD0C20705D0CA05DC
:1041D00003D5E26B42F00102E263420705D5DA073C
:1041E00003D0E26B42F00202E263820705D5DA07F0
:1041F00003D0E26B42F00402E263020705D5DA075E
:1042000003D0E26B42F00802E263E26B002A33D093
:10421000800604D5880602D5204601F012FE2068EB
:104220004069E16BC0F38010090700D428B3204631
:1042300001F0F9FD2068416949061AD5416921F06C
:1042400040014161606BA0B11B490165606BFDF7E6
:10425000DFFB002810D0606B016DBDE8704008479F
:10426000830610D58B060ED52046BDE8704001F0C0
:10427000E8BD2046FFF798FF70BD2046FFF794FF8A
:104280000020E06370BD030606D50B0604D520466A
:10429000BDE8704001F072BF4006F3D54806F1D585
:1042A000D168204621F04001D160202184F83910E6
:1042B00000F0F0F870BD0000175E000870B5040053
:1042C00004D094F83900002510B106E0012070BD3B
:1042D00084F83850204600F023F8242084F8390070
:1042E0002068C16821F40051C160204601F0F0FD52
:1042F0002068016921F4904101612068416921F041
:104300002A0141612068C16841F40051C160E56340
:10431000202084F8390084F83A00002070BD0000A5
:1043200010B586B0044614216846FBF7A5FF18496E
:104330002068884229D11748016841F010010160C6
:10434000006800F01000059012481438016841F030
:10435000010101600068694600F0010005904FF41A
:10436000C060009002200190012002900320039081
:10437000072004900848FDF727FD0022114625205C
:10438000FEF7ACFC2520FEF79DFC06B010BD00003A
:1043900000100140443802400000024090F83A30DA
:1043A000202B1DD1D1B1CAB190F83830012B17D0D4
:1043B00081628285C2850021C163222280F83A2071
:1043C00080F8381001684A6942F001024A610068C9
:1043D000C16841F49071C1600020704701207047AE
:1043E00002207047274810B501784278303901EB38
:1043F00081036FF02F0101EB4303134400F120020E
:104400001370C3780479303B03EB830301EB430360
:10441000234453708379C479303B03EB830301EB6E
:10442000430323449370427A837A303A02EB820248
:1044300001EB42021344144A9370037B447B303BEC
:1044400003EB830301EB430323445370037CC07BE2
:10445000303800EB800001EB40001844D07009496F
:10446000002220310948FFF70FF9002206490748CA
:10447000FFF7A6F8BDE81040112202490448FFF7F3
:104480008DBF000068040020B4000020E816002062
:104490009C17002070472DE9F05F064600688846AB
:1044A00000EB4814D4F808054FF0040B410708EB63
:1044B00088004FF0050A4FF0100706EBC00508D53D
:1044C000C4F808B5D4F80C0540F00200C4F80C0597
:1044D00032E0D4F80805800601D520202AE0D4F87F
:1044E00008054FF00809000710D5D4F80C0540F076
:1044F0000200C4F80C0585F85DA0C4F80875C4F87E
:1045000008954146306803F089F815E0D4F80805AD
:10451000400511D5D4F80C0540F00200C4F80C0594
:104520004146306803F07AF8C4F8087585F85D9064
:104530004FF48060C4F80805D4F8080580050ED54E
:10454000D4F80C0540F00200C4F80C05414604F50F
:10455000A164306803F062F84FF400708DE0D4F885
:1045600008054FF00001C0074FF0010236D0306956
:1045700030B1A86CD4F81035C3F31203C01AE86444
:1045800085F85D20A965C4F8082595F83F0020B19D
:10459000022802D003280ED019E0D4F80C0540F010
:1045A0000200C4F80C05414604F5A164306803F02C
:1045B00035F827600BE0D4F8000540F00050C4F84F
:1045C000000585F85C2041463046FDF743FD15F8AF
:1045D000500F80F001002870BDE8F09FD4F8080566
:1045E000800733D5D4F80C0520F00200C4F80C0580
:1045F00095F85D000223012806D0052807D006287B
:1046000008D0082806D018E085F85C2015E085F869
:104610005CA012E0A86D421CAA65032803D9A96515
:1046200085F85CB001E085F85C30D4F8000520F036
:10463000804040F00040C4F80005C4F8083595F803
:104640005C2041463046FDF705FDC5E7D4F8080576
:10465000000614D5D4F80C0540F00200C4F80C058F
:10466000A86D4146401CA865062085F85D0004F54C
:10467000A164306802F0D2FF80202060ACE7D4F85B
:104680000805C006A8D595F83F00032809D1D4F83D
:104690000C0540F00200C4F80C054146306802F0F9
:1046A000BDFF032085F85D00C4F8087595F83F004C
:1046B00008B1022890D1D4F8000520F0804040F0E5
:1046C0000040C4F8000587E72DE9F047026802EBD7
:1046D0004114D4F808254FF0040C520709D5C4F84A
:1046E00008C5D4F80C0540F00200C4F80C05BDE87C
:1046F000F087D4F8082501EB810392064FF00206FB
:1047000000EBC30514D52022C4F8082595F83D20F8
:10471000012AECD185F85DC0D4F80C2542F00202E4
:10472000C4F80C25006802F079FF85F85C60DEE7CC
:10473000D4F808254FF0000352060FD585F85DC068
:10474000AB65D4F80C2542F00202C4F80C250068D1
:1047500004F5A16402F062FF402010E0D4F80825BF
:1047600092050ED5D4F80C2542F00202C4F80C25AF
:10477000006804F5A16402F051FF4FF4007020605E
:10478000B5E7D4F808254FF00108D20710D0AB6583
:10479000D4F80C2542F00202C4F80C25006804F598
:1047A000A16402F03BFFC4F8008085F85D809EE7BD
:1047B000D4F808254FF0080912074FF0050A0DD567
:1047C000C4F80895D4F80C2542F00202C4F80C2570
:1047D000006802F023FF85F85DA088E7D4F808257B
:1047E0004FF01007D20610D5AB65D4F80C2542F077
:1047F0000202C4F80C25006804F5A16402F00EFF63
:10480000032085F85D00276071E7D4F808251206BB
:104810000FD5D4F80C2542F00202C4F80C2500682C
:1048200004F5A16402F0FAFE062085F85D00802000
:10483000A5E7D4F80825520511D5D4F80C2542F087
:104840000202C4F80C25006804F5A16402F0E6FE3B
:1048500027604FF48060206085F85D9047E7D4F8CA
:10486000082592078CD5D4F80C2522F00202C4F852
:104870000C2595F85D20012A0AD0032A26D0042AA7
:1048800013D0052A16D0062A17D0082A15D01FE003
:1048900085F85C8095F83F20022A19D195F85120BF
:1048A00082F0010285F8512012E085F85C6085F8FD
:1048B0003D300DE085F85CA00AE0AA6D571CAF659D
:1048C000032A03D9AB6585F85CC001E085F85C601C
:1048D000C4F8086595F85C20FDF7BCFB07E77CB5DC
:1048E00004680546D4F840040190D4F8400420F050
:1048F0002E000090019880070DD50198C00706D0C2
:10490000A06920F00051A1612846FDF74FFB0098F7
:1049100040F002000090019800072CD5009840F06C
:1049200008000090019840071AD5A869022803D012
:10493000E86803280CD00FE00198C0F3414002283A
:10494000286803D0012103F0B7F805E00221FAE757
:104950004EF66020C4F804042846FDF727FB0AE061
:10496000D4F8400420F02E00C4F84004286881697F
:1049700041F00051816101988006009802D540F015
:1049800020000090C4F840047CBD00002DE9F041F7
:10499000024600680646016AC1F3434301F00F076F
:1049A000C1F30A14022B25D1002C23D007EB870179
:1049B00002EBC105696C00291CD0224603F09BF86C
:1049C000686C20446864E86C2044E86406EB471097
:1049D000D0F81015084A11420CD0D0F8001521F07B
:1049E000804141F00041C0F8001515F8500F80F0EB
:1049F00001002870BDE8F0810000F81FFEE70168A3
:104A00004A69D24352050CD46FF480624A61042192
:104A10000164002140F8301F2022427301730120FD
:104A20007047002070472DE9F84F0446006889461A
:104A30000B9D01689846174641F48061016020682B
:104A4000016841F48071016000954FF0011A002265
:104A5000514620460A9B00F0D6F8F0BB216809F0C9
:104A6000FE0008610AF1010B2B46594620460A9ABE
:104A700000F0FAF818B1206C042812D03AE020684F
:104A80004169806900902A4620460A9900F061F940
:104A900050B1206C04282DD12068016841F40071C8
:104AA00001600120BDE8F88FFEB2B8F1010F09D016
:104AB0002168380A08612A4620460A9900F049F917
:104AC0000028E6D1206806612A4620460A9900F0AF
:104AD00040F90028DDD1206800E00BE0016841F4D6
:104AE0008071016000950022514620460A9B00F02B
:104AF0008AF808B10320D5E7216809F0FF0040F0EB
:104B0000010008612B46594620460A9A00F0ACF88D
:104B10000028B0D1C6E700002DE9F843044600683C
:104B20000D46DDE9089701689846164641F4807104
:104B300001604B4600224FF001112046009700F023
:104B400062F8E8B9216805F0FE0008613B464A4674
:104B50001849204600F088F828B1206C04280FD1AD
:104B60000120BDE8F88320684169806900903A46D9
:104B70004946204600F0EDF820B1206C042813D0FF
:104B80000320EEE7F5B2B8F1010F09D02168300A31
:104B900008613A464946204600F0DBF80028ECD18F
:104BA000206805610020DCE72068016841F400719D
:104BB0000160D5E70200010070B516460D460446B7
:104BC0001AE02046FFF71BFF08B1012070BD681CEA
:104BD00012D025B1FDF7E4F9801BA8420CD954F896
:104BE000400F40F0200044F81009002020602021F0
:104BF00061732073032070BD20684069C043400783
:104C0000DFD4002070BD2DE9F0471E4690460D46CA
:104C10000446C1F30747DDF8209012E0701C10D065
:104C20002EB1FDF7BDF9A0EB0900B04209D9002073
:104C300044F8300F20216173A07320730320BDE876
:104C4000F0872068012F0AD0806925EA000000045F
:104C5000000C06D000214145E0D00020EFE740697C
:104C6000F3E70121F7E700002DE9F0479A46914666
:104C70000D46044600264FF02008C1F307472AE0FE
:104C800020684069C043400512D42068016841F49F
:104C90000071016021686FF4806048610420206425
:104CA000266384F83D8084F83C600120BDE8F087ED
:104CB000B9F1FF3F0FD0B9F1000F05D0FDF770F942
:104CC000A0EB0A01494506D944F8306F84F80D80FD
:104CD00026730320EAE72068012F07D0D0F81800D8
:104CE00025EA00000004000CE0D0C9E74069F7E7BE
:104CF0002DE9F041002590460E460446202721E08C
:104D00004069C043C0060CD421686FF010004861B0
:104D10002564256384F83D7084F83C500120BDE88B
:104D2000F0812EB1FDF73CF9A0EB0800B04209D9A3
:104D300054F8400F40F0200044F8040967702570D3
:104D40000320ECE720684169C9434906D8D4002014
:104D5000E5E770B516460D4604461AE02046FFF713
:104D60004EFE08B1012070BD681C12D025B1FDF7C0
:104D700017F9801BA8420CD954F8400F40F02000CE
:104D800044F8100900202060202161732073032063
:104D900070BD20684069C0430006DFD4002070BDAC
:104DA00010B50348FDF71AFBBDE8104000F002B84B
:104DB0006C01002010B50E48FDF729FB002815D125
:104DC0000B480C494FF4804201600B4941600021BF
:104DD0008160C0E9031241618161C161016200F03B
:104DE0000DF8BDE810400248FDF714BB10BD0000EF
:104DF0006C010020005C0040A086010000B5006846
:104E0000284987B088424AD127480021026842F0E9
:104E100004020260026802F004020592026842F095
:104E200001020260006800F0010005904FF48070FC
:104E300000901220CDE9010102200390042004908B
:104E400069461A48FCF7C0FF4FF4007000906946AD
:104E50001748FCF7B9FF14481030016841F400010D
:104E60000160006800F4000005900F4810380168E8
:104E700041F400010160016821F400010160002299
:104E80000F214820FDF72AFF4820FDF71BFF0022D5
:104E90000F214920FDF722FF4920FDF713FF07B03E
:104EA00000BD0000005C00403038024000000240BD
:104EB00000080240FCF754BE104800B5026887B0F5
:104EC000002142F001020260006800F0010005903C
:104ED0004FF4004000900120CDE902010848019004
:104EE00069460848FCF770FF00220F212820FDF7D3
:104EF000F5FE2820FDF7E6FE07B000BD3038024081
:104F00000000211000000240FFF754BF1FB50A4601
:104F100001460020084C8DF80C000123A46803A86A
:104F20008DE819000548FDF7F9FA08B1FFF738FFD9
:104F30009DF80C0004B010BD000000206C010020A2
:104F40003EB514460A460146074880680094CDE9FC
:104F5000013001230548FDF7E1FA002802D0FFF7F0
:104F60001FFF01203EBD0000000000206C0100205A
:104F70001FB51346084C0A468DF80C300146A4684C
:104F8000012303A88DE819000448FDF7C5FB00289C
:104F900001D0FFF705FF1FBD000000206C010020BD
:104FA000FCF7DEBD2DE9F041244886B001780029E8
:104FB00040D1234C012505702068002640F00800F0
:104FC00020602068022700F00800059068038DE843
:104FD000E100DFF8708069464046FCF7F5FE206886
:104FE00040F0080020602068694600F00800059045
:104FF000A0148DE8E1004046FCF7E6FE206840F092
:10500000040020602068104C00F00400059004208B
:105010008DE8E10069462046FCF7D6FE0022042117
:105020002046FCF7B7FF012204212046FCF7B2FF1F
:1050300000F0B8FC06B0BDE8F081000000000020E0
:1050400030380240000C0240000802402DE9F843CD
:10505000154D0C460746002204212846FCF79AFF0E
:10506000DFF848804FF40056002231464046FCF7F6
:1050700091FF384600F0E4FC0D4822466946C368BB
:105080000C48FEF785FC08B100F082FC0122314695
:105090004046009CFCF77EFF012204212846FCF7D5
:1050A00079FF2046BDE8F88300080240000C02406A
:1050B00000000020C001002070B505460122510308
:1050C0000948FCF767FF094C002204212046FCF741
:1050D00061FF284600F0B4FC2046BDE87040012284
:1050E0000421FCF757BF0000000C024000080240FA
:1050F00070B5054600224FF400510948FCF74AFFFD
:10510000084C002204212046FCF744FF284600F00A
:1051100097FC2046BDE8704001220421FCF73ABF0D
:10512000000C024000080240F0B503688C88DD687E
:10513000C5F30B452C442504882404EBC2141E59E6
:1051400006F470461E5103680F68DE68C6F30B460E
:10515000761C3E442E431E5104688B89E568C5F3D6
:105160000A052B441D048C2303EBC213E65806F4F6
:105170007046E65004688F68E668C6F30A06761C37
:105180003E442E43E6509423046803EBC213E558D3
:1051900025F00705E55005680C69EC5091F83130B1
:1051A0000C7E1F0226069C24056804EBC21491F8AD
:1051B000323055F804C04FF0000C45F804C091F8A7
:1051C000305046EA03433D431D4303681D51982375
:1051D000046803EBC213E55825F0FF05E5500568A8
:1051E0004C69EC50A023046803EBC213E55840F26D
:1051F0000776B543E550D1E907452C430568EC50E7
:10520000AC23046803EBC213E55844F803C00568F7
:105210004C6AEC500B698BB3012B32D0042B32D08B
:10522000022B30D0032B2ED0072B2CD00123B024FF
:10523000056804EBC2142E5906F0E0262E51D1E980
:105240000065AD1B0E8D5D435E43ED1C45EA0643D4
:1052500005682B51B423046803EBC213E5586FF3C0
:105260000A05E5500468C96AE1500068842101EB31
:10527000C211425842F001024250F0BDFFE7042340
:10528000D5E70323D3E70223D1E700007FB5002150
:105290001848009101910291154A0391C0E900213B
:1052A00081608161144A0162C0E90A21022501245A
:1052B000C561C0E9031444610163FCF738F908B122
:1052C000FBF7A2FF0520CDE9000406200290694605
:1052D0000848FCF77FF808B1FBF796FF69460548D8
:1052E0000195FCF777F8002801D0FBF78DFF7FBD13
:1052F00000200140301500200100000F0F4810B5BC
:105300000D49016000210222C0E90112C160C0E91B
:105310000A1201634163FCF799FA08B1FBF774FFC5
:1053200001210648FCF73EFA002803D0BDE81040F2
:10533000FBF76ABF10BD000000B0024078150020E6
:1053400020B1002210210248FCF724BE0122F9E717
:105350000008024010B504490448FBF756FF024913
:10536000491E087010BD00002101002010BD00087A
:1053700000B5134887B01149016001210022C0E93E
:1053800001120421C16010214023C0E904138023CD
:10539000C0E906320262426282620091019102918A
:1053A00003910491059106916946FEF700FA0028E1
:1053B00001D0FBF729FF07B000BD0000400100A0AD
:1053C000B81500202DE9F04F87B014216846FAF790
:1053D00053FF54480024016841F004010160016852
:1053E00001F004010591016841F0200101600168AC
:1053F00001F020010591016841F080010160016820
:1054000001F080010591016841F00101016001682E
:1054100001F001010591016841F00201016001689C
:1054200001F002010591016841F04001016001684D
:1054300001F040010591016841F01001016001682F
:1054400001F010010591016841F008010160006858
:10545000DFF8D49000F0080005900022162148469D
:10546000FCF798FDDFF8C4A0002280215046FCF72D
:1054700091FDDFF8BCB04FF4405700223946584642
:10548000FCF788FD4FF4C048002241462948FCF74C
:1054900081FD162000900125CDE90154694648465A
:1054A0000394FCF791FC244E48F20700CDE9000676
:1054B000694602945046FCF787FC80200090CDE9B5
:1054C0000154694650460394FCF77EFC2020CDE948
:1054D0000006694602944846FCF776FC0420CDE9B4
:1054E0000004694615480294FCF76EFCE802CDE919
:1054F0000004694658460294FCF766FC0097CDE923
:105500000154694658460394FCF75EFCCDF80080D0
:10551000CDE90154694607480394FCF755FC07B0F0
:10552000BDE8F08F30380240000802400000024021
:10553000000C02400018024000001210000402405B
:10554000144810B5124901601349416000214FF41D
:1055500080428160C0E9031241618161C1610162E1
:10556000FCF758FF08B1FBF74FFE00210948FCF794
:10557000F5FE08B1FBF748FE00210648FCF70FFFD7
:10558000002803D0BDE81040FBF73EBE10BD000070
:10559000005C0040EC150020A086010070B59AB0B8
:1055A00034216846FAF768FE34210DA8FAF764FE44
:1055B0002F482E490024C0E9001484600721C460EC
:1055C000C0E90441032181610E210525C0E90715C9
:1055D0004FF4A7714162F52181624FF4AA71C16253
:1055E000F721016380F8344080F8354080F8364078
:1055F000FDF71AFA08B1FBF707FE019402944FF485
:105600008066CDE90646039404940094CDE90854DD
:105610008DF8304005948DF831400A940B948DF844
:105620003240002269461248FDF7BCF908B1FBF789
:10563000EBFD0D940E940F94109411941294CDE9F7
:105640001346CDE915548DF864408DF865401794E4
:1056500018948DF8664001220DA90548FDF7A2F9BE
:10566000002801D0FBF7D0FD1AB070BD00680140E2
:105670004016002010B586B014216846FAF7FCFDEC
:105680001B48002419490594C0E900147F2181605A
:10569000FF21C0E9031444618461FDF72FFF08B1C5
:1056A000FBF7B2FD8DF800408DF801408DF8024007
:1056B0000394002269460E480494FDF7E5FF08B103
:1056C000FBF7A2FD01208DF814008DF815008DF870
:1056D00016008DF81740002205A90548FDF770FF58
:1056E000002801D0FBF790FD06B010BD0028004057
:1056F000E81600200F4810B50D4901604FF4827183
:10570000416000218160C1604FF400720161C0E915
:105710000512C1610162416281620A21C162FEF724
:10572000ADF8002803D0BDE81040FBF76DBD10BDFB
:10573000005001400817002010B58EB000240794D7
:10574000089409940A940B941C2168460C94FAF767
:1057500093FD2248204901604FF4D271C0E9011441
:105760006321C0E90314FEF797FB08B1FBF74CFD7A
:105770004FF48050079007A91848FEF7BDFB08B109
:10578000FBF742FD1548FEF7D7FC08B1FBF73CFDDF
:105790000B940BA911480C94FEF756FB08B1FBF7CC
:1057A00033FD6020CDE900040294002269460B48D5
:1057B0000494FEF759FC08B1FBF726FD0822694660
:1057C0000648FEF751FC08B1FBF71EFD0348FEF743
:1057D0000DFC0EB010BD000000040040601700205A
:1057E0000C4810B50A4901604FF4E13141600021D5
:1057F00081600C22C160C0E904128161C161FEF7C1
:105800005DFD002803D0BDE81040FBF7FDBC10BDD6
:10581000001001409C17002010B5002206490748DF
:1058200000F070FE0649054801F07EFDBDE810401D
:10583000024801F092BD000071730008DC170020DF
:1058400044010020FEE770470907090E002806DA28
:1058500000F00F0000F1E02080F8141D704700F107
:10586000E02080F8001470470148FCF74FBC0000AE
:10587000A41B00207047010901EB810100F00F001B
:1058800000EB4100C0B27047002102E00A38C0B20C
:10589000491C0A28FAD2090740EA11607047000043
:1058A00070B504460068C168490614D44FF0FF3152
:1058B000C160FCF775FB05464FF47A7607E000BF40
:1058C000FCF76EFB401BB04201D9032070BD20687D
:1058D000C0684006F4D5002070BD38B50B46009274
:1058E00004460022802100F008F8002804D0606DF2
:1058F00040F020006065032038BD2DE9F0411D46D1
:1059000017460E460446DDF8188035E0681C33D093
:105910002DB1FCF745FBA0EB0800A8422CD3206872
:10592000416821F0E00141606068B0F5827F0BD1F1
:10593000A068B0F5004F02D0B0F5806F04D12068A8
:10594000016821F040010160A06AB0F5005F0AD152
:10595000206801684DF6FF721140016020680168FF
:1059600041F400510160012084F85100002084F8C6
:1059700050000320BDE8F0812068806836EA00000E
:1059800004D00020B842C1D10020F3E70120F9E79C
:1059900010B50348FDF758FFBDE8104000F002B80D
:1059A000C001002000B587B02148FDF764FF002842
:1059B0003BD11F481F4901601821C161002181604E
:1059C000416107220161C0E90A12C1604FF400720F
:1059D0000162826141624FF4827141601648016840
:1059E00041F480110160006800F4801005901248B5
:1059F0001438016841F0200101600068694600F038
:105A0000200005904FF460700090022001900290F9
:105A100001200390052004900848FCF7D5F907B051
:105A200003485DF804EBFDF729BF07B000BD000097
:105A3000C0010020005001404438024000140240E0
:105A400001B5064801226946C3680548FEF748F8D3
:105A5000002801D0FFF79CFF08BD000000000020D7
:105A6000C00100207047FCF75BBF000030B59FB05D
:105A700030216846FAF700FC142118A8FAF7FCFB5D
:105A800030210CA8FAF7F8FB20480025016841F006
:105A900080510160006800F080501D901C48016832
:105AA00041F4404101600068022400F440401D9030
:105AB000092000904FF4803001900120CDE90504C9
:105AC0008005079004200890A820CDE9090407204C
:105AD0000B906846FDF736FB18A90F2081E83100CE
